:020000040000FA
:100000008316003086008312862856204720592008
:1000100047205C2047205F20472062204720652042
:100020004720682047206B2047206E204720712002
:10003000472074204720772047207A2047207D20C2
:100040004720802047208320472008008320472026
:10005000802047207D2047207A2047207720472096
:1000600074204720712047206E2047206B204720B6
:100070006820472065204720622047205F204720D6
:100080005C20472059204720562047200800FF3099
:100090008C008C0B4C280800FF308D008D0B5128F4
:1000A000492802308E008E0B53284E283F308600A0
:1000B00008000630860008005B30860008004F30DC
:1000C000860008006630860008006D308600080053
:1000D0007D30860008000730860008007F308600EB
:1000E00008006F30860008007730860008007C30FA
:1000F000860008003930860008005E30860008005F
:10010000793086000800713086000800052026201E
:00000001FF
