:020000040000FA
:100000008316003086008312812851204720542017
:100010004720572047205A2047205D204720602056
:1000200047206320472066204720692047206C2016
:1000300047206F20472072204720752047207820D6
:1000400047207B2047207E20472008007E20472035
:100050007B204720782047207520472072204720AA
:100060006F2047206C2047206920472066204720CA
:1000700063204720602047205D2047205A204720EA
:100080005720472054204720512047200800FF30A8
:100090008C008C0B4C28080082308D008D0B4E2874
:1000A00049283F30860008000630860008005B3093
:1000B000860008004F308600080066308600080081
:1000C0006D30860008007D3086000800073086000D
:1000D00008007F30860008006F3086000800773007
:1000E000860008007C308600080039308600080051
:1000F0005E30860008007930860008007130860086
:0601000008000520262086
:00000001FF
